:0300000002026594
:0C026500787FE4F6D8FD75810D0201439E
:01028F00224C
:10023D00758920758DFD758BFDD28ED29CC29FD296
:06024D009ED2ACD2AF22EC
:08027C008F993099FDC299220F
:10002600EF1460491460661470030200B324FB7079
:10003600030200D51470030200D81470030200DB1B
:100046001470030200DE240B60030200E0EB600E76
:10005600A8057401088002C333D8FC428022A80593
:100066007401088002C333D8FCF4528022EB600E80
:10007600A8057401088002C333D8FC429022A80563
:100086007401088002C333D8FCF4529022EB600E50
:10009600A8057401088002C333D8FC42A022A80533
:1000A6007401088002C333D8FCF452A022EB600E20
:1000B600A8057401088002C333D8FC42B022AF05FC
:1000C600A8077401088002C333D8FCF452B0228B0F
:0B00D60080228B90228BA0228BB02296
:1000E100EF14602414602E14603824FB6045146002
:1000F10045146045146045240B7044A805E580084B
:100101008002C313D8FC8027A805E590088002C3AC
:1001110013D8FC801AA805E5A0088002C313D8FCF7
:10012100800DAF05A807E5B0088002C313D8FC54C1
:1001310001FF22AF8022AF9022AFA022AFB0227F79
:0201410000229A
:10014300E4F508F50912028F12028A12023D7FE8D4
:100153007E031200037FA512027C7B007A007908DC
:100163001201DCEF6031E50830E015C4540FFFE500
:1001730008C3135407FD1200E18F0912019F801772
:1001830012020D8F09E508C4540FFFE508C3135489
:0C01930007FDAB0912002612027180BEAD
:0300230002028452
:06028400309802C298321E
:10000300E4FDFCC3ED9FEC9E5015E4FBFA0BBB0033
:0F001300010AEB646E4A70F50DBD00010C80E42C
:0100220022BB
:05028A00D2A1D2A02268
:0601DC008B0A8A0B890C5E
:1001E200E4F50D30A10320A0FA00000020A119308F
:1001F200A01600000020A0FD750D0112020DAB0A31
:0A020200AA0BA90CEF120253AF0D76
:01020C0022CF
:0B027100D2A1D2A030A1FD30A0FA22E3
:10019F00E4FEEF30E703D38001C392A1EF25E0FF28
:1001AF0000000030A0FD00000020A0FD0EEEC39463
:1001BF000840DFD2A100000030A0FD00000030A1F8
:0C01CF0004E4FE80027E0120A0FDAF06CB
:0101DB002201
:10020D00E4FFFE00000030A0FD000000EE25E0FE42
:10021D0030A10343060120A0FD0FBF08E6C2A100D7
:0F022D00000030A0FD00000020A0FDD2A1AF0610
:01023C00229F
:10025300BB010689828A83F0225002F722BBFE018A
:02026300F32284
:00000001FF
